{
  "contractName": "AgroCoin",
  "abi": [
    {
      "inputs": [
        {
          "internalType": "uint256",
          "name": "_initialSupply",
          "type": "uint256"
        }
      ],
      "stateMutability": "nonpayable",
      "type": "constructor"
    },
    {
      "anonymous": false,
      "inputs": [
        {
          "indexed": true,
          "internalType": "address",
          "name": "owner",
          "type": "address"
        },
        {
          "indexed": true,
          "internalType": "address",
          "name": "spender",
          "type": "address"
        },
        {
          "indexed": false,
          "internalType": "uint256",
          "name": "value",
          "type": "uint256"
        }
      ],
      "name": "Approval",
      "type": "event"
    },
    {
      "anonymous": false,
      "inputs": [
        {
          "indexed": true,
          "internalType": "address",
          "name": "from",
          "type": "address"
        },
        {
          "indexed": true,
          "internalType": "address",
          "name": "to",
          "type": "address"
        },
        {
          "indexed": false,
          "internalType": "uint256",
          "name": "value",
          "type": "uint256"
        }
      ],
      "name": "Transfer",
      "type": "event"
    },
    {
      "inputs": [
        {
          "internalType": "address",
          "name": "",
          "type": "address"
        },
        {
          "internalType": "address",
          "name": "",
          "type": "address"
        }
      ],
      "name": "allowance",
      "outputs": [
        {
          "internalType": "uint256",
          "name": "",
          "type": "uint256"
        }
      ],
      "stateMutability": "view",
      "type": "function",
      "constant": true
    },
    {
      "inputs": [
        {
          "internalType": "address",
          "name": "",
          "type": "address"
        }
      ],
      "name": "balanceOf",
      "outputs": [
        {
          "internalType": "uint256",
          "name": "",
          "type": "uint256"
        }
      ],
      "stateMutability": "view",
      "type": "function",
      "constant": true
    },
    {
      "inputs": [],
      "name": "decimals",
      "outputs": [
        {
          "internalType": "uint8",
          "name": "",
          "type": "uint8"
        }
      ],
      "stateMutability": "view",
      "type": "function",
      "constant": true
    },
    {
      "inputs": [],
      "name": "name",
      "outputs": [
        {
          "internalType": "string",
          "name": "",
          "type": "string"
        }
      ],
      "stateMutability": "view",
      "type": "function",
      "constant": true
    },
    {
      "inputs": [],
      "name": "symbol",
      "outputs": [
        {
          "internalType": "string",
          "name": "",
          "type": "string"
        }
      ],
      "stateMutability": "view",
      "type": "function",
      "constant": true
    },
    {
      "inputs": [],
      "name": "totalSupply",
      "outputs": [
        {
          "internalType": "uint256",
          "name": "",
          "type": "uint256"
        }
      ],
      "stateMutability": "view",
      "type": "function",
      "constant": true
    },
    {
      "inputs": [],
      "name": "getTotalSupply",
      "outputs": [
        {
          "internalType": "uint256",
          "name": "",
          "type": "uint256"
        }
      ],
      "stateMutability": "view",
      "type": "function",
      "constant": true
    },
    {
      "inputs": [
        {
          "internalType": "address",
          "name": "_to",
          "type": "address"
        },
        {
          "internalType": "uint256",
          "name": "_value",
          "type": "uint256"
        }
      ],
      "name": "transfer",
      "outputs": [
        {
          "internalType": "bool",
          "name": "success",
          "type": "bool"
        }
      ],
      "stateMutability": "nonpayable",
      "type": "function"
    }
  ],
  "bytecode": "0x60806040526040518060400160405280600881526020017f4167726f436f696e000000000000000000000000000000000000000000000000815250600090816200004a919062000492565b506040518060400160405280600381526020017f41474300000000000000000000000000000000000000000000000000000000008152506001908162000091919062000492565b506012600260006101000a81548160ff021916908360ff160217905550348015620000bb57600080fd5b50604051620011dd380380620011dd8339818101604052810190620000e19190620005af565b6000811162000127576040517f08c379a00000000000000000000000000000000000000000000000000000000081526004016200011e9062000668565b60405180910390fd5b6000600260009054906101000a900460ff1660ff16600a6200014a91906200080d565b905080826200015a91906200085e565b600381905550600354600460003373ffffffffffffffffffffffffffffffffffffffff1673ffffffffffffffffffffffffffffffffffffffff168152602001908152602001600020819055503373ffffffffffffffffffffffffffffffffffffffff16600073ffffffffffffffffffffffffffffffffffffffff167fddf252ad1be2c89b69c2b068fc378daa952ba7f163c4a11628f55a4df523b3ef600354604051620002089190620008ba565b60405180910390a35050620008d7565b600081519050919050565b7f4e487b7100000000000000000000000000000000000000000000000000000000600052604160045260246000fd5b7f4e487b7100000000000000000000000000000000000000000000000000000000600052602260045260246000fd5b600060028204905060018216806200029a57607f821691505b602082108103620002b057620002af62000252565b5b50919050565b60008190508160005260206000209050919050565b60006020601f8301049050919050565b600082821b905092915050565b6000600883026200031a7fffffffffffffffffffffffffffffffffffffffffffffffffffffffffffffffff82620002db565b620003268683620002db565b95508019841693508086168417925050509392505050565b6000819050919050565b6000819050919050565b6000620003736200036d62000367846200033e565b62000348565b6200033e565b9050919050565b6000819050919050565b6200038f8362000352565b620003a76200039e826200037a565b848454620002e8565b825550505050565b600090565b620003be620003af565b620003cb81848462000384565b505050565b5b81811015620003f357620003e7600082620003b4565b600181019050620003d1565b5050565b601f82111562000442576200040c81620002b6565b6200041784620002cb565b8101602085101562000427578190505b6200043f6200043685620002cb565b830182620003d0565b50505b505050565b600082821c905092915050565b6000620004676000198460080262000447565b1980831691505092915050565b600062000482838362000454565b9150826002028217905092915050565b6200049d8262000218565b67ffffffffffffffff811115620004b957620004b862000223565b5b620004c5825462000281565b620004d2828285620003f7565b600060209050601f8311600181146200050a5760008415620004f5578287015190505b62000501858262000474565b86555062000571565b601f1984166200051a86620002b6565b60005b8281101562000544578489015182556001820191506020850194506020810190506200051d565b8683101562000564578489015162000560601f89168262000454565b8355505b6001600288020188555050505b505050505050565b600080fd5b62000589816200033e565b81146200059557600080fd5b50565b600081519050620005a9816200057e565b92915050565b600060208284031215620005c857620005c762000579565b5b6000620005d88482850162000598565b91505092915050565b600082825260208201905092915050565b7f496e697469616c20737570706c79206d7573742062652067726561746572207460008201527f68616e2030000000000000000000000000000000000000000000000000000000602082015250565b600062000650602583620005e1565b91506200065d82620005f2565b604082019050919050565b60006020820190508181036000830152620006838162000641565b9050919050565b7f4e487b7100000000000000000000000000000000000000000000000000000000600052601160045260246000fd5b60008160011c9050919050565b6000808291508390505b60018511156200071857808604811115620006f057620006ef6200068a565b5b6001851615620007005780820291505b80810290506200071085620006b9565b9450620006d0565b94509492505050565b60008262000733576001905062000806565b8162000743576000905062000806565b81600181146200075c576002811462000767576200079d565b600191505062000806565b60ff8411156200077c576200077b6200068a565b5b8360020a9150848211156200079657620007956200068a565b5b5062000806565b5060208310610133831016604e8410600b8410161715620007d75782820a905083811115620007d157620007d06200068a565b5b62000806565b620007e68484846001620006c6565b925090508184048111156200080057620007ff6200068a565b5b81810290505b9392505050565b60006200081a826200033e565b915062000827836200033e565b9250620008567fffffffffffffffffffffffffffffffffffffffffffffffffffffffffffffffff848462000721565b905092915050565b60006200086b826200033e565b915062000878836200033e565b925082820262000888816200033e565b91508282048414831517620008a257620008a16200068a565b5b5092915050565b620008b4816200033e565b82525050565b6000602082019050620008d16000830184620008a9565b92915050565b6108f680620008e76000396000f3fe608060405234801561001057600080fd5b50600436106100885760003560e01c806395d89b411161005b57806395d89b4114610117578063a9059cbb14610135578063c4e41b2214610165578063dd62ed3e1461018357610088565b806306fdde031461008d57806318160ddd146100ab578063313ce567146100c957806370a08231146100e7575b600080fd5b6100956101b3565b6040516100a2919061055e565b60405180910390f35b6100b3610241565b6040516100c09190610599565b60405180910390f35b6100d1610247565b6040516100de91906105d0565b60405180910390f35b61010160048036038101906100fc919061064e565b61025a565b60405161010e9190610599565b60405180910390f35b61011f610272565b60405161012c919061055e565b60405180910390f35b61014f600480360381019061014a91906106a7565b610300565b60405161015c9190610702565b60405180910390f35b61016d61049f565b60405161017a9190610599565b60405180910390f35b61019d6004803603810190610198919061071d565b6104a9565b6040516101aa9190610599565b60405180910390f35b600080546101c09061078c565b80601f01602080910402602001604051908101604052809291908181526020018280546101ec9061078c565b80156102395780601f1061020e57610100808354040283529160200191610239565b820191906000526020600020905b81548152906001019060200180831161021c57829003601f168201915b505050505081565b60035481565b600260009054906101000a900460ff1681565b60046020528060005260406000206000915090505481565b6001805461027f9061078c565b80601f01602080910402602001604051908101604052809291908181526020018280546102ab9061078c565b80156102f85780601f106102cd576101008083540402835291602001916102f8565b820191906000526020600020905b8154815290600101906020018083116102db57829003601f168201915b505050505081565b600081600460003373ffffffffffffffffffffffffffffffffffffffff1673ffffffffffffffffffffffffffffffffffffffff168152602001908152602001600020541015610384576040517f08c379a000000000000000000000000000000000000000000000000000000000815260040161037b90610809565b60405180910390fd5b81600460003373ffffffffffffffffffffffffffffffffffffffff1673ffffffffffffffffffffffffffffffffffffffff16815260200190815260200160002060008282546103d39190610858565b9250508190555081600460008573ffffffffffffffffffffffffffffffffffffffff1673ffffffffffffffffffffffffffffffffffffffff1681526020019081526020016000206000828254610429919061088c565b925050819055508273ffffffffffffffffffffffffffffffffffffffff163373ffffffffffffffffffffffffffffffffffffffff167fddf252ad1be2c89b69c2b068fc378daa952ba7f163c4a11628f55a4df523b3ef8460405161048d9190610599565b60405180910390a36001905092915050565b6000600354905090565b6005602052816000526040600020602052806000526040600020600091509150505481565b600081519050919050565b600082825260208201905092915050565b60005b838110156105085780820151818401526020810190506104ed565b60008484015250505050565b6000601f19601f8301169050919050565b6000610530826104ce565b61053a81856104d9565b935061054a8185602086016104ea565b61055381610514565b840191505092915050565b600060208201905081810360008301526105788184610525565b905092915050565b6000819050919050565b61059381610580565b82525050565b60006020820190506105ae600083018461058a565b92915050565b600060ff82169050919050565b6105ca816105b4565b82525050565b60006020820190506105e560008301846105c1565b92915050565b600080fd5b600073ffffffffffffffffffffffffffffffffffffffff82169050919050565b600061061b826105f0565b9050919050565b61062b81610610565b811461063657600080fd5b50565b60008135905061064881610622565b92915050565b600060208284031215610664576106636105eb565b5b600061067284828501610639565b91505092915050565b61068481610580565b811461068f57600080fd5b50565b6000813590506106a18161067b565b92915050565b600080604083850312156106be576106bd6105eb565b5b60006106cc85828601610639565b92505060206106dd85828601610692565b9150509250929050565b60008115159050919050565b6106fc816106e7565b82525050565b600060208201905061071760008301846106f3565b92915050565b60008060408385031215610734576107336105eb565b5b600061074285828601610639565b925050602061075385828601610639565b9150509250929050565b7f4e487b7100000000000000000000000000000000000000000000000000000000600052602260045260246000fd5b600060028204905060018216806107a457607f821691505b6020821081036107b7576107b661075d565b5b50919050565b7f4e6f7420656e6f75676820746f6b656e732e0000000000000000000000000000600082015250565b60006107f36012836104d9565b91506107fe826107bd565b602082019050919050565b60006020820190508181036000830152610822816107e6565b9050919050565b7f4e487b7100000000000000000000000000000000000000000000000000000000600052601160045260246000fd5b600061086382610580565b915061086e83610580565b925082820390508181111561088657610885610829565b5b92915050565b600061089782610580565b91506108a283610580565b92508282019050808211156108ba576108b9610829565b5b9291505056fea2646970667358221220c0e69f6251c933a2b3b7fab74049a63066396a41868a26e5500cb4526105878664736f6c63430008130033",
  "immutableReferences": {},
  "source": "// SPDX-License-Identifier: MIT\r\npragma solidity ^0.8.19;\r\n\r\ncontract AgroCoin {\r\n    string public name = \"AgroCoin\";\r\n    string public symbol = \"AGC\";\r\n    uint8 public decimals = 18;\r\n    uint public totalSupply;\r\n\r\n    mapping(address => uint) public balanceOf;\r\n    mapping(address => mapping(address => uint)) public allowance;\r\n\r\n    event Transfer(address indexed from, address indexed to, uint value);\r\n    event Approval(address indexed owner, address indexed spender, uint value);\r\n\r\n    constructor(uint _initialSupply) {\r\n        require(_initialSupply > 0, \"Initial supply must be greater than 0\");\r\n        // Calculate total supply with decimals in a safer way\r\n        uint256 multiplier = 10 ** uint256(decimals);\r\n        totalSupply = _initialSupply * multiplier;\r\n        balanceOf[msg.sender] = totalSupply;\r\n        emit Transfer(address(0), msg.sender, totalSupply);\r\n    }\r\n    function getTotalSupply() public view returns (uint) {\r\n    return totalSupply;\r\n}\r\n\r\n    function transfer(address _to, uint _value) public returns (bool success) {\r\n        require(balanceOf[msg.sender] >= _value, \"Not enough tokens.\");\r\n        balanceOf[msg.sender] -= _value;\r\n        balanceOf[_to] += _value;\r\n        emit Transfer(msg.sender, _to, _value);\r\n        return true;\r\n    }\r\n}\r\n",
  "sourcePath": "E:\\Admin\\agri-app-admin\\contracts\\AgroCoin.sol",
  "compiler": {
    "name": "solc",
    "version": "0.8.19+commit.7dd6d404.Emscripten.clang"
  },
  "schemaVersion": "3.4.16",
  "updatedAt": "2025-05-06T00:37:50.533Z",
  "networkType": "ethereum",
  "devdoc": {
    "kind": "dev",
    "methods": {},
    "version": 1
  },
  "userdoc": {
    "kind": "user",
    "methods": {},
    "version": 1
  }
}